:100000000056002061390100B1380100C1380100FB
:10001000D9380100F1380100093901000000000061
:100020000000000000000000000000002139010075
:10003000313901000000000041390100513901004F
:100040009938010000000000000000004168000035
:1000500075670000ED670000000000000000000070
:10006000591A010009490000E948000089680000A8
:10007000000000000000000000000000A96800006F
:100080002DE9F843054688464FF0A0441C4EDFF8A2
:1000900078901C4F237E002BFCD1A37E2BB94FF010
:1000A00001022274A37E002BFBD072B6735DF3B9FC
:1000B00000F02EF8C0B90122D9F8103043F0040343
:1000C000C9F8103087F83220BFF34F8F00BF30BF20
:1000D00087F83200D9F8103023F00403C9F8103043
:1000E000BFF34F8F62B6D5E700BF30BFFAE70023FA
:1000F0007355B8F1000F00D0C04762B6BDE8F88371
:10010000481900200000105000ED00E00000000041
:100110005FF800F0A1190100FFFFFFFFFFFFFFFFE5
:10012000FFFFFFFFFFFFFFFFFFFFFFFFFFFFFFFFDF
:10013000FFFFFFFFFFFFFFFFFFFFFFFFFFFFFFFFCF
:10014000FFFFFFFFFFFFFFFFFFFFFFFFFFFFFFFFBF
:10015000FFFFFFFFFFFFFFFFFFFFFFFFFFFFFFFFAF
:10016000FFFFFFFFFFFFFFFFFFFFFFFFFFFFFFFF9F
:10017000FFFFFFFFFFFFFFFFFFFFFFFFFFFFFFFF8F
:10018000FFFFFFFFFFFFFFFFFFFFFFFFFFFFFFFF7F
:10019000FFFFFFFFFFFFFFFFFFFFFFFFFFFFFFFF6F
:1001A000FFFFFFFFFFFFFFFFFFFFFFFFFFFFFFFF5F
:1001B000FFFFFFFFFFFFFFFFFFFFFFFFFFFFFFFF4F
:1001C000FFFFFFFFFFFFFFFFFFFFFFFFFFFFFFFF3F
:1001D000FFFFFFFFFFFFFFFFFFFFFFFFFFFFFFFF2F
:1001E000FFFFFFFFFFFFFFFFFFFFFFFFFFFFFFFF1F
:1001F000FFFFFFFFFFFFFFFFFFFFFFFFFFFFFFFF0F
:10020000FFFFFFFFFFFFFFFFFFFFFFFFFFFFFFFFFE
:10021000FFFFFFFFFFFFFFFFFFFFFFFFFFFFFFFFEE
:10022000FFFFFFFFFFFFFFFFFFFFFFFFFFFFFFFFDE
:10023000FFFFFFFFFFFFFFFFFFFFFFFFFFFFFFFFCE
:10024000FFFFFFFFFFFFFFFFFFFFFFFFFFFFFFFFBE
:10025000FFFFFFFFFFFFFFFFFFFFFFFFFFFFFFFFAE
:10026000FFFFFFFFFFFFFFFFFFFFFFFFFFFFFFFF9E
:10027000FFFFFFFFFFFFFFFFFFFFFFFFFFFFFFFF8E
:10028000704700BF034613F8012B002AFBD1181A50
:10029000013870470048704724D40100252070477A
:1002A0000220704708B513F079FA08BD08B513F0BD
:1002B000EFFA43690148984708BD00BF24D4010004
:1002C00010B50C4611461A46012807D010B1022875
:1002D0000BD010BDE0B200F039F8FAE7BDF80830F5
:1002E000C9B2E0B200F072F8F3E7E0B200F016F93C
:1002F000EFE700BF044B00229A80DA805A819A818E
:10030000B4221A81704700BFC0270020014B187823
:10031000704700BFC027002010B40446034B0FCB2A
:1003200084E80F00204610BC704700BFC42700209F
:1003300082B0054B9B8A0020DAB262F307001B0AE9
:1003400063F30F2002B07047C027002010B50446A9
:100350001C4B1B7813F0030F02D010F00C0F15D1BB
:1003600014F0030F1AD113F0080F02D014F0040F89
:1003700020D113F0040F13D014F0080F10D0114B3C
:1003800000229A80DA80B4221A8109E013F006FA7A
:1003900002690C4B1A61FFF7ADFF01E0FFF7AAFFFE
:1003A000084B1C70084C204600F030FC204600F042
:1003B00023F910BD034B00229A80DA80B4221A81FF
:1003C000EEE700BFC02700202CD4010010B5044682
:1003D00000F044FD042C00D010BD4C4C204600F031
:1003E00063FC204600F0AEF9494B1A78042A37D056
:1003F000082A4AD0464B5B89B3F5616F05D3444B5D
:1004000000215981998901319981414B99894EF691
:100410006023994251D03E4BD9884EF660239942D1
:100420004FD03B4B99884EF6602399424DD012F045
:10043000080FD1D000F01BFD036898470368984768
:10044000002846D1324B1B7813F0080FC4D02F4838
:1004500000F064FC002848D02D4BB4221A81BBE781
:100460002B49CB8801339BB2CB802A49A1FB0301E6
:10047000490901EB8101A3EBC1039BB2002BB9D168
:1004800023494B8901334B81B4E721490B89013B57
:100490000B818B8801339BB28B801F49A1FB030129
:1004A0004909C1EB0111A3EB81039BB2002BA1D140
:1004B00017494B8901334B819CE7154B00219981EA
:1004C000A9E7134B0021D980ABE7114B002199809C
:1004D000ADE700F0CCFC0368984700F070FB012802
:1004E000B0D10B4BB4221A81ACE7094B1B7813F047
:1004F000080F3FF471AF064B1B89002B7FF46CAFE4
:1005000013F0C6F90368984766E700BF2CD40100D2
:10051000C0270020CDCCCCCC8988888810B5042891
:1005200018D8DFE800F018031C1F220013F036F97A
:10053000044613F0ADF9C3684FF4806200212046F1
:100540009847FFF7D7FE0C4800F060FB04F1F0007D
:1005500000F03FF810BD084800F07CFBFAE7074BBD
:100560001975F7E7054B5975F4E713F091F98369AD
:10057000002101209847EDE72CD40100C02700207E
:10058000F8B506460F4C2568238903EB83035B000F
:10059000F4336B8013F07CF90435238903EB830378
:1005A00007690A22314605EB4300B8472389013326
:1005B0009BB22381226852789A4201D8002222817C
:1005C000F8BD00BFD8270020704708B5FFF7D8FF57
:1005D00008BD10B5044613F05BF9C3684FF44472CC
:1005E000002120469847034B1C60462363700A2372
:1005F000237010BDD827002030B5A5B0044643684D
:1006000098474F4B1B7913F0030F09D0A368984705
:1006100010F0080F21D1A368984710F0040F1CD1E7
:10062000474B1B7913F00C0F09D0A368984710F0C3
:10063000020F41D1A368984710F0010F3CD1A36885
:1006400098473F4D2871E36804A89847BDF81830D3
:10065000EB8000236B8125B030BD0025019502950C
:10066000ADF80C5013F014F9C3680A22294601A80A
:1006700098479DF80430022262F302038DF804309B
:10068000E36810A89847BDF80430BDF8462062F32F
:100690000F13ADF80430E3680CA89847BDF83E305E
:1006A000ADF80630E36808A898470B9BADF8083012
:1006B00001A8FFF765FFB3E7002501950295ADF8A6
:1006C0000C5013F0E5F8C3680A22294601A89847A0
:1006D0009DF80430032262F302038DF8043063684E
:1006E0009847BDF80430028862F30B13ADF804306C
:1006F000134A52891209C3F3072362F307138DF8D3
:100700000530E36820A89847BDF88230ADF8063080
:10071000E3681CA89847BDF87030ADF80830E3686E
:1007200018A89847BDF86E30ADF80A30E36814A8F1
:100730009847179BADF80C3001A8FFF721FF7EE723
:10074000D82700202DE9F04FA7B00446436898470A
:10075000A368984710F0080F04D1A368984710F0D9
:10076000040F3BD02368984703689847054600F07C
:1007700026FA90B123689847036898478046002678
:1007800003960496ADF8146002460A2103A800F00F
:1007900002FA37464FF00A09A4E0284600F013FA9F
:1007A0000028E7D163689847B0F86030002B40F02C
:1007B0002B81944BDD880135E36816A89847BDF876
:1007C00060309D4200F08F81E3680DA898478D4B03
:1007D000BDF83C20DA805A8901325A8127B0BDE841
:1007E000F08FDAF80C3028469847DAF810302846AF
:1007F00098472368984703689847824600F0EBF9CA
:10080000051EC0F2FB8063689847C388ADF80430CA
:10081000636898470389ADF8063063689847438852
:10082000BDF804201344ADF8083063689847838806
:10083000BDF806201344ADF80A30EDB2DAF80C30FA
:10084000284698478346DAF810302846984701AA88
:100850000146584600F078F9002840F0D1804FF466
:10086000C973ADF8043040F65C03ADF8063040F2D1
:10087000A623ADF8083040F61613ADF80A30DAF8C2
:100880000C30284698478346DAF8103028469847B7
:1008900001AA0146584600F057F9003018BF012060
:1008A0009DF81E3060F345138DF81E30636898473D
:1008B00090F86330C3F302039DF8202063F3020233
:1008C0008DF820206368984790F86230C3F30203E4
:1008D000BDF8202063F38812ADF8202006A8FFF7AA
:1008E0004FFE0136D8F800309847F3B28342BFF488
:1008F00059AFF3B226AA134413F88C5C06970797F6
:10090000ADF82070D8F81C3028469847012805D04B
:10091000D8F81C30284698470328E2D12368984726
:10092000036898478246E36809A89847BDF828B04D
:1009300012F0AEFFC3684A46394606A898479DF8AC
:1009400018306FF302038DF81830DAF81C3028469F
:100950009847012814BF002001209DF8183060F34B
:10096000C3038DF81830BDF81830BDF82A2062F3A3
:100970000F13ADF818304FEA1B129DF81A3062F3CE
:1009800003038DF81A309DF81C306BF303038DF8C8
:100990001C30DAF80C3028469847BDF81A3060F35E
:1009A0000F13ADF81A30DAF8103028469847BDF822
:1009B0001C3060F30F13ADF81C3023699847ADF875
:1009C00044009DF81E30C0B260F301038DF81E3064
:1009D000DAF81830284698479DF81E3060F38303F4
:1009E0008DF81E3003F00C030C2B7FF4FAAE9DF84B
:1009F0001E3043F00C038DF81E30F2E638464FE708
:100A000001204DE7D8270020002309930A93ADF871
:100A10002C302368984703689847064600F0DBF8B7
:100A2000051E4FDB12F034FFC3680A22002109A81B
:100A300098479DF82430012262F302038DF8243098
:100A4000E36812A89847BDF82430BDF84E2062F341
:100A50000F13ADF824306368984790F8603013F0B6
:100A6000020F3AD16368984790F8603013F0040F92
:100A700035D16368984790F8603013F0080F30D193
:100A80006368984790F8603013F0100F14BF062287
:100A900000229DF8263062F303038DF82630EDB274
:100AA000F36828469847BDF8263060F30F13ADF879
:100AB0002630336928469847BDF8283060F30F1375
:100AC000ADF8283009A8FFF75BFD6368984700235D
:100AD000A0F860301B4A53816BE60122D9E704225B
:100AE000D7E70522D5E7002509950A95ADF82C50E2
:100AF00012F0CEFEC3680A22294609A898479DF83D
:100B00002430042262F302038DF82430E36822A823
:100B10009847BDF82430BDF88E2062F30F13ADF86E
:100B20002430E3681EA89847BDF88630ADF826301B
:100B3000E3681AA898471D9BADF8283009A8FFF76D
:100B40001FFD41E6D8270020134672B11288824269
:100B50000DD89A8882420CD3DA888A420BD35888FF
:100B600088428CBF00200120704700207047002081
:100B70007047002070470020704710B504460846B3
:100B800011460023224600F0B3F90021204600F070
:100B9000DCF9C0B210BD08B5002300F0A9F908BD0A
:100BA00008B500F0A5F908BD08B5002100F0CDF9A1
:100BB000C0B208BD08B500F0C8F9C0B208BD08B59C
:100BC00000F06EF908BD08B500F07EF908BD08B563
:100BD00000F052F908BD08B500F0DEF908BD0000CC
:100BE00010B5436898470488003418BF012412F0F8
:100BF0004FFE8368224603210220984712F048FEE8
:100C00008368224603210420984710BDF8B50746A3
:100C10000F4B1B68BBB1002425460D4E56F82530FE
:100C200053B156F82530984703682BB156F8253054
:100C300098470368384698470134E4B2254656F889
:100C40002430002BEAD13846FFF7CAFFF8BD00BFB9
:100C500054120020F8B50746124B1B68F3B100246C
:100C60002546104E56F825308BB156F8253098475A
:100C700043683846984750B156F825309847C368BE
:100C80002BB156F825309847C36838469847013449
:100C9000E4B2254656F82430002BE3D13846FFF75E
:100CA0009FFFF8BD541200202DE9F04107461A4B72
:100CB0001B68002B2DD000242646174D05E001347B
:100CC000E4B2264655F824301BB355F82630002BE5
:100CD000F5D055F82630984743683846984700289D
:100CE000EDD055F82630984790F81480BB689847A7
:100CF00018EA000FE3D055F8263098478368002B98
:100D0000DDD055F826309847836838469847002844
:100D1000D5D0BDE8F08100BF541200202DE9F0418C
:100D200007461C4B1B68002B32D000242646194D69
:100D300005E00134E4B2264655F824302BB355F8CB
:100D40002630002BF5D055F82630984743683846B2
:100D500098470028EDD055F82630984790F8148031
:100D6000BB68984718EA000FE3D055F8263098473B
:100D70000369002BDDD055F82630984703693846C3
:100D800098470028D5D0012000E00020BDE8F08180
:100D90000020FBE75412002008B54368984700780C
:100DA000C0F3400008BD704730B587B00446036803
:100DB00098470368984702461F4903A800F0DBFBE9
:100DC0009DF8153013F0020F2ED0BDF80C30CD3B3E
:100DD0009BB240F29D22934229D8BDF80E2040F6E6
:100DE0007B039A4225D99DF81430043BDBB2382BA3
:100DF00001D9002019E00023019302934FF0020370
:100E0000012565F387138DF8043012F041FD436826
:100E100001A898476368984790F8603043F0020350
:100E200080F86030284600E0002007B030BD002088
:100E3000FBE70020F9E700BFE427002008B54FF4E6
:100E40009F7354224021024800F080FB08BD00BF80
:100E5000E42700200048704740D4010008B502286C
:100E600000D008BD1946104600F02CFCF9E70148F7
:100E7000704700BF58D4010038B50546036898474D
:100E800048B10024AB68E0B29847034630B901345A
:100E90000A2CF7D100E00023184638BD0123FBE7F8
:100EA00038B505460368984750B10024EB69E0B2B5
:100EB0009847012806D001340A2CF7D1002000E021
:100EC000002038BD0120FCE738B505460368984787
:100ED00050B10024EB69E0B29847032806D00134F2
:100EE0000A2CF7D1002000E0002038BD0120FCE7EB
:100EF0002DE9F84F824689461646984600252F462A
:100F000009E07B1CDBB20AF807404B451BD01F46AB
:100F100001350A2D17D0ECB2F36920469847002816
:100F2000F6D0F368204698478346336920469847B1
:100F3000B8F1000FE5D0424601465846FFF704FEDF
:100F40000028DED1E4E7BDE8F88F2DE9F843074635
:100F500088460024264604E00136F6B201340A2C05
:100F600017D0E5B2FB69284698470028F6D0FB6801
:100F70002846984781463B6928469847B8F1000FB4
:100F8000EAD0424601464846FFF7DEFD0028E3D19D
:100F9000E4E770B2BDE8F88338B5054603689847C2
:100FA00060B10024EB69E0B2984728B901340A2CFB
:100FB000F8D14FF0FF3038BD60B2FCE74FF0FF30A2
:100FC000F9E7000008B543689847037813F0240F49
:100FD00014BF0120002008BD38B543689847C58874
:100FE00004894188294482882244034B5D809C8087
:100FF000D9801A8138BD00BF0028002070B584B0A8
:101000000546436898470378C3F38006C3F340144A
:101010002B689847036898470246304902A800F0B9
:1010200090F99DF80830BDF80A00BDF80C10012BAE
:1010300004D0022B0CD0002004B070BD284CA21CA0
:10104000FFF782FDB0FA80F0400920700020F3E73E
:1010500086B31CB9224B1B78002B3DD10023019392
:101060004FF00203012262F3850362F387138DF8C8
:1010700000301B4C23788DF8013003118DF80230BD
:101080000B118DF8033001F00F0141EA00118DF8CA
:10109000041012F0FDFB43686846984723788BB133
:1010A0006B68984790F8603043F0200380F8603018
:1010B0000120C1E7002CD1D0094B1B78012BCDD0EA
:1010C0000020B9E76B68984790F8603043F004035C
:1010D00080F860300120AFE70020ADE70C28002049
:1010E0000028002030B585B00546104C46230393F8
:1010F00064230293242301930723009312230322E2
:10110000022104F10C0000F0F5F86B689847C588DF
:10111000018942882A4483880B446580A180E2804B
:1011200023810023237005B030BD00BF00280020BC
:10113000004870475CD4010010B50446C28A038A97
:101140009A4202D901234375837494F82530012B08
:101150000FD0227D0A4B53F82230204698470128B1
:101160000CD0022814BF00200220638D0133638558
:1011700010BD042363750123A374EAE70120F4E79B
:1011800060120020C289B0F91830B0F920105B1A43
:10119000002BB8BF5B42934218DCB0F91A30B0F9AB
:1011A00022105B1A002BB8BF5B429A4210DBB0F9E9
:1011B000262043889A4207DCB0F92A3040898342CE
:1011C000CCBF0020012070470020704700207047EE
:1011D0000020704770B5044690F82450012D05D9C1
:1011E000AB1EDBB2012B08D9002070BD0123837434
:1011F0000020207503236375F7E7C68C013636B2ED
:10120000C684FFF7BFFF08B90123A374032D01D0E3
:101210000020EAE723889E42BCBF0123A3746388B1
:101220009E42C4BF0123A37400232375E27C237B69
:101230009A4201D00020D8E7B4F92830A28893421E
:10124000BCBF0122A274E2889342C4BF0123A374ED
:10125000B4F92A3022899342BCBF0122A274628968
:101260009342C4BF0123A37400232385A37C4BB105
:101270000020A0746685A38B2383E38B6383012303
:10128000E374B2E70023E3740220AEE710B504462E
:1012900090F8243023B9038D01330385002010BD5D
:1012A000012B25D1FFF76EFF18B9022363750123C7
:1012B000A3740122E284E37C1344DBB2E37422755D
:1012C000B4F92010A183B4F92220E2833BB1A37CBE
:1012D0002BB9E07C012814BF00200120DFE70020AB
:1012E000A07401236385208521836283E374F0E782
:1012F0000020D4E730B4BDF80850BDF80C4002809F
:10130000438001FB02F292B2AB1A8380A21AC28020
:10131000058144810173BDF81030C381BDF81430DC
:10132000038200238374C37403854385C384437598
:101330004FF6FF72028342838283C283037530BCFF
:101340007047F0B585B004460E461546002301935C
:101350000293ADF80C300A2201A92846FFF70DFCD4
:10136000012806D9002323706380A380204605B09E
:10137000F0BD9DF80470E0B1EB68384698473084C2
:101380002B69384698477084EB693846984786F849
:1013900024002846FFF71BFC98B9002386F8253067
:1013A0003046FFF7C9FE328B738B20706280A380BA
:1013B000DCE74FF6FF7333847384002386F8243010
:1013C000E7E7012386F82530EAE700BF70B5044659
:1013D0000E461578CB6928469847012801D0012090
:1013E00070BD002323806380A380E3802381638119
:1013F000A381E38123746374227E02F0F80263F315
:10140000C3022276F36828469847A08133692846AC
:101410009847E081237C01332374E0E72DE9F04114
:1014200004460F461678CB683046984780463B699D
:10143000304698470546FB6930469847032841D017
:10144000A389A8EB03031BB22380B4F902209A42BC
:10145000B8BF1A4616466280B4F904709F42A8BF0E
:101460001F46A780E089281A00B2E080B4F908205E
:101470008242B8BF02462281B4F90A108142A8BF55
:1014800001466181B4F9125001EB050C604553DA55
:10149000491B884250DD521B904203DC227E42F001
:1014A00002022276EA1993424BDA7F1BBB4248DDE7
:1014B000721B9342DEBF237E43F008032376012094
:1014C000BDE8F08100232374B4F90020E38A9A4236
:1014D00022DB217E01F00801002914BF002010202A
:1014E00059428A4206DC227E12F0040F04BF40F00B
:1014F0000800C0B2B4F9062093420FDC237E13F03B
:10150000020F0BD140F00400C0B29142D8DB237E21
:1015100013F0010F08D0D3E70020E1E7914207DB89
:10152000237E13F0010F03D140F00200C0B2C7E7E1
:10153000002808BF0120C3E7217E41F00101217688
:10154000A9E7227E42F004022276B1E7418282823C
:10155000C3820023038043808380C380038143814F
:101560008381C38103744374027E02F0F80263F343
:10157000C302027670472DE9F04186B004460D465D
:10158000164600238DF81730314903AA03C982E8B3
:10159000030000930193ADF808300A2269463046F3
:1015A000FFF7EBFA80469DF800708DF81770F3692D
:1015B00038469847002831D0B8F1010F2ED1736911
:1015C00038469847AB8A834228D3B3683846984751
:1015D00020BBF3689DF817009847804633699DF853
:1015E0001700984707462B7C06AA02EB830353F8A3
:1015F0000C3C0DF11702314628469847A989EA8923
:101600006B7C5E1C6E7421806280A4F80480E7808D
:1016100023726072204606B0BDE8F08100232B8063
:101620006B80AB80EB802B816B81AB81EB812B746A
:101630006B742A7E02F0F80263F3C3022A762380D9
:101640006380A380E380237201236372E2E700BF1B
:1016500074D40100014B1888704700BF382800205F
:101660000A207047024B5B6803EB0010807B7047D9
:1016700038280020024B5B680001185C704700BFEF
:1016800038280020024B5B6803EB0010408870474D
:1016900038280020024B5B6803EB001080887047FD
:1016A00038280020024B5B6803EB0010008970476C
:1016B00038280020024B5B6803EB0010407870472D
:1016C00038280020014B19805860704738280020C6
:1016D000004870477CD4010010B5044614F0B4F8FB
:1016E00004F1480104F1140015F0A0FD04F17C00A0
:1016F00012F054FF04F59E7012F0DCFD04F5A070AA
:1017000015F08AFC04F5AA7013F048FB04F5C470C8
:1017100015F0E6FE04F5E27015F08CFF04F5EA70B2
:1017200014F08CF804F24D2000F008FE04F5ED7082
:1017300013F0C2FB94F8DA310BB913F0C3FB04F5D4
:10174000EE7013F091FA04F50C7015F0CBFB04F574
:101750000E7014F065F804F5147000F03BF80022E8
:10176000014B1A6010BD00BF6812002038B9064A4C
:10177000136801338B4205DD1060012070470023A0
:101780001846014A136070476812002008B512F02D
:1017900019FE15F0AFFB15F059FF13F093FB13F092
:1017A0006BFABDE8084000F0C1BD00BF0022014B4C
:1017B0001A60704770120020024A136801331360E8
:1017C000704700BF70120020014B1868704700BFBF
:1017D0007012002001469C22014816F063BE00BF33
:1017E00074120020014B1878704700BFE4140020E9
:1017F00001464FF47072014816F054BEA82800202C
:1018000000487047A82800202DE9F04FC3B0CDE96B
:1018100000018022002102A822AE4E9C4D9F16F0AE
:101820004CFE30468022002116F047FE4FF0000E9D
:10183000444BDFF8188104F1FF3993F801C093F9A4
:10184000024008F5707A19F8015F4046002301E074
:10185000202B21D030F9022FA24209DA02A951F837
:10186000231002F1050B59440DF1080B4BF823101E
:10187000944506DA56F82310A2F1050B594446F8B0
:1018800023101F2D03F10103E2D1A242E0DA002F61
:10189000C8BF9644202BDDD108F14008C245D2D103
:1018A0004FF000084FF000406FF00044254B21AA94
:1018B0009F88B3F906C0B3F9089001AD41AE52F864
:1018C000043F55F8041F002B07DDBB4205DA8C45A9
:1018D00003DDF145B8BF08F101088C42A8BF0C46F2
:1018E0009842B8BF1846B242E9D1164A937A4345A6
:1018F00003DAB2F90C30A34206DB00231846124A81
:10190000136043B0BDE8F08FB2F9103000998B42FC
:10191000F3DDB2F9123001998B42EEDAD389114628
:101920008342EADA084A09784F98136801449942D9
:1019300003DD013313600020E3E70023012013607F
:10194000DFE700BF74120020DC140020A62800206E
:10195000F0B5284CBDF91860A78BBDF91CE0B84262
:10196000BDF92450BDF928C003DAB4F9200098422B
:1019700030D00022A18C8E4203DAB4F926107145D2
:1019800021DB0020218D8D4207DAB4F92A10614550
:1019900003DAE18D089DA94226D0B4F914209A42B9
:1019A00008DA154AA1691368994208DC0023184631
:1019B0001360F0BD0022104B01201A60F0BD01330E
:1019C00013600120F0BDA08D0599401AB0FA80F097
:1019D0004009D7E7B4F91E008842CADA618C8A1A36
:1019E000B2FA82F25209C5E7002AD6D00028D8D12F
:1019F000D3E700BF74120020E01400202DE9F04F5F
:101A00008BB01B9E1446DDE914C807961C9E1D462C
:101A100008961E9EBDF95890BDF95CA0DDF860B037
:101A2000BDF96430BDF9682009969DF87CE080BB63
:101A30001F4E08463778DFB9099BCDF80CE00293BA
:101A4000089B2A460193079B214600936346FFF7B4
:101A5000DBFE8742307019D015F00AF83378024661
:101A6000EBB9837713480BB0BDE8F04F12F022BCFE
:101A7000CDE90432CDE902ABCDE9008963462A46BF
:101A80002146FFF765FF87423070E5D10BB0BDE816
:101A9000F08F0022064B1A700BB0BDE8F08F0123C7
:101AA000054893770BB0BDE8F04F12F003BC00BFC0
:101AB000E41400209CA80100F4A901002DE9F843DA
:101AC000C51D25F00705CC1D24F0070400AFADEBC4
:101AD000050D6E46ADEB040D6C4698B135464FF0E2
:101AE00001084FF00009013A02EB000E12F801CF95
:101AF0000135BCF11F0F0CBF05F8019C05F8018CE6
:101B00007245F3D1A9B322464FF0010E4FF0000801
:101B1000013B03EB010C13F8015F01321F2D0CBFD9
:101B200002F8018C02F801EC6345F4D1002920DDB4
:101B30004FF00008451ED7F820C004EB010E3544D5
:101B40004FEA4009002810DD6346721E12F8011F9B
:101B500009B1217829B9B3F900106429C8BFA3F8E5
:101B60000080954203F10203F0D101347445CC4466
:101B7000E8D1BD46BDE8F8832DE9F04F264F022895
:101B8000B7F830A0B7F932B0B7F83480B7F936609B
:101B90004FF000093ADDCC46A1F1040E0EEB400EE9
:101BA00031F9024FA4EB0805002DC8BFAC44A41BBB
:101BB00048BFA1448E45F3D1E24527DA0120022A2D
:101BC000B7F838E0B7F93A80B7F83CC0B7F93E50FB
:101BD0004FF0000713DD3E46191F01EB420233F9B7
:101BE000021FA1EB0C04002CC8BF3619491B48BFCB
:101BF0007F189A42F3D1B64501DABDE8F08FB845B7
:101C0000D4BF002000F00100BDE8F08FCB45D4BF69
:101C100000200120D3E700BF74120020034B1B6C8F
:101C20009842D4BF00200120704700BF74120020EA
:101C30002DE9F04F013883B0002801916CDD0128B7
:101C400072D04FF000094FF0010C09EB000303EBD9
:101C5000D3735B1032F9131032F910404500A142E2
:101C600004DD22F813400C4622F8101032F9191046
:101C70004FEA490BA14202EB0B0A04DD22F819409E
:101C8000515332F9191032F913408C4205DD22F814
:101C9000131022F80B4032F9134006460BF10201F3
:101CA000555E02EB4C0E22F81350545232F90B5091
:101CB0003EF9028F0CF1010CA845F9DB711E02EB15
:101CC000410301E00E4601391F4633F90249AC4297
:101CD000F8DC8C4507DCAEF80040A7F800800E4623
:101CE000BAF90050E4E7019B22F80B408B423D809B
:101CF00018DBE14616DD48450EDD09F1010C84458F
:101D0000A3D102EB49094000B9F90030115E8B42C2
:101D1000C4BFA9F800101352019B32F9130003B09D
:101D2000BDE8F08FB01EE6E791460220ECE700BF69
:101D30002DE9F04F013800EBD07383B05B10002821
:101D400001936CDD012872D04FF000094FF0010CB7
:101D500009EB000303EBD3735B1031F9132031F966
:101D600010404500A24204DD21F81340144621F83A
:101D7000102031F919204FEA490BA24201EB0B0A5E
:101D800004DD21F819404A5331F9192031F9134083
:101D9000944205DD21F8132021F80B4031F913405E
:101DA00006460BF102028D5E01EB4C0E21F813503A
:101DB0008C5231F90B503EF9028F0CF1010CA84501
:101DC000F9DB721E01EB420301E01646013A1F46A1
:101DD00033F90249AC42F8DC944507DCAEF8004028
:101DE000A7F800801646BAF90050E4E7019B21F8F5
:101DF0000B4093423D8018DBE14616DD48450EDD81
:101E000009F1010C8445A3D101EB49094000B9F95E
:101E100000300A5E9342C4BFA9F800200B52019B18
:101E200031F9130003B0BDE8F08FB01EE6E7894634
:101E30000220ECE7831A042B10B413DDDC1EB1F989
:101E40000430002A0B804B8031F9143008DD40004B
:101E5000A0EB42020A44014421F8023D8A42FBD130
:101E600010BC70475C1E032C08BF9C1EE7E700BF38
:101E7000F0B40446049E0846DDE90551A642DDF8AB
:101E80001CC019DD04F10044AF1E013C07EB4607FE
:101E900005EB44058E1C06E09C42B8BF1C46BD42C3
:101EA00026F8024F08D035F9024F9442F4DD14466B
:101EB000BD4226F8024FF6D1F0BC6246FFF7BABF2A
:101EC000F0B400280F46DDE90561DDF81CC014DB25
:101ED000013006EB40048D1C06E09842B8BF18465E
:101EE000B44225F8020F08D034F9020D9042F4DD17
:101EF0001046B44225F8020FF6D13846F0BC6246CF
:101F0000FFF798BF2DE9F043B1F9009002284FEA9E
:101F10004918DDE90767C2E90088DDE909CE21DD5E
:101F20008C1E5B0176017F01043204EB400002311C
:101F300003E0A84631F9029C0432B1F90050B1F92E
:101F4000024006FB05F503FB0454156802310CFB47
:101F5000054407FB094408FB0E4481424FEAA424D0
:101F60005460E6D1BDE8F0832DE9F041884684B0A5
:101F70004C00083404AFBD6B24F00704ADEB040D36
:101F8000BE690395FD6904AC0195009602947D6BD2
:101F9000FFF76EFF3B6B21460293FB6A03950193AB
:101FA000BB6A40460093D7E90823FFF7ABFFBD4665
:101FB000BDE8F0812DE9F041884684B04C0008343A
:101FC00004AFBD6B24F00704ADEB040DBE690395AF
:101FD000FD6904AC0195009602947D6BFFF770FFDC
:101FE0003B6B21460293FB6A03950193BB6A404613
:101FF0000093D7E90823FFF785FFBD46BDE8F081D0
:102000002DE9F04F8FB00AAF7D6D9A461B1A02334F
:1020100000F103088B465919FB6B18EB05080446C1
:102020001646FB6000F0AA804FEA8809002934D1E7
:1020300009F10A0929F00709C7F808D0ADEB090D25
:1020400008953E6D0DF128090796FE6C134606961D
:10205000BE6C5A4605967E6C414604963E6C0396CD
:10206000BE6BCDF80890CDE900A6FFF7A3FF002CCA
:102070000DDBFE680235013409EB850906EB4404EB
:1020800059F8043B5B1124F8023DA642F8D1D7F879
:1020900008D01437BD46BDE8F08F8B000A3323F01B
:1020A0000703C7F804D0ADEB030D08953A6D0AABF2
:1020B0000792FA6C09F10A090692BA6C29F007092D
:1020C00005927A6C04923A6C0392BA6BCDE900A245
:1020D000BB605A4602933346FFF746FFADEB090D4E
:1020E0000895396D0DF128090791F96C3346069171
:1020F000B96C5A460591796C20460491396C03916C
:10210000B96BCDF80890CDE900A14146FFF752FF29
:10211000631C9A4511DDFE68BA68E91CB31E02EB28
:10212000810103EB4A0A06EB440251F8043B5B11C0
:1021300022F8023F5245F8D1FE60002C0DDDFE680A
:10214000E91C09EB810106EB440251F8043B5B11E9
:1021500022F8023D9642F8D1FE60BB68023559F87C
:10216000252053F825301344FA689B1122F81430C7
:10217000D7F804D01437BD46BDE8F08F8B000A3382
:1021800023F00703E946ADEB030D08953E6D0DF115
:1021900028080796FE6C13460696BE6C5A460596AE
:1021A0007E6C04963E6C0396BE6BCDF80880CDE93C
:1021B00000A6FFF7D9FE544512DAFA6804F100448C
:1021C000013C0335931E02EB440608EB850803EB44
:1021D0004A0A58F8043B5B1126F8023FB245F8D191
:1021E000CD461437BD46BDE8F08F00BF2DE9F0475E
:1021F00088B099464FEA430808F1080424F0070420
:1022000008AFADEB040DD7E90D563C6BCDE9065692
:10221000BD6AFE6A059403953C6A7D6A049608AE21
:10222000CDE901650094FD6BFFF7EAFEB9F1000FFF
:1022300010DD023CA044A6F1020A34F9023F3AF94B
:10224000022F9B1AAB42CCBF5B1B03EAE3734445EE
:102250002380F2D1BD46BDE8F08700BF1E232DE9E3
:10226000F041264E86B00D46804600932449334601
:102270006420144600220DF0CFFD00274FF01F0C04
:10228000012204211F482B46CDF814C00091039071
:10229000114664200496CDE901770DF075FD4FF0ED
:1022A000240C0120184AA5EB08014909009003926B
:1022B0000496CDE901774346CDF814C0202264206E
:1022C0000DF062FD294651F8043BA342FBD02B27B9
:1022D00000220124C5F11F030C481944CDE9012255
:1022E0000390049649092B46059700942022642008
:1022F0000DF04AFD06B0BDE8F08100BF7087010017
:102300007C870100908701009C870100B487010051
:102310000B68934209D070B50D4614460646224616
:1023200029463046FFF79AFFF9E770470022024B33
:10233000C3E900221A817047601500200278014B22
:102340001A70704710130020314B1B78002B5AD0A5
:102350002DE9F04F16462F4A87B089468046002463
:102360002D4F1368DFF8B4B0DFF8B4A0013E14E0DD
:102370003D5D38F91410022D2BF8101005F1010EF7
:1023800039F914109CBF5FFA8EF53D55032D2AF8DC
:10239000101017D001340A2C0CD04FEA440C0CEB6F
:1023A0000401C81816F8011F0029E1D1395501347C
:1023B0000A2CF2D10133022BC8BF0023136007B0EF
:1023C000BDE8F08F0CEB04035B000BEB0301086826
:1023D000534402901868B1F804C09B88049002A985
:1023E00028460192ADF81430ADF80CC0FFF7A0FC00
:1023F00004A928F814002846FFF79AFC019A29F846
:1024000014001368C6E7044AC2E900331381704719
:10241000101300206C15002060150020E814002027
:1024200024150020F0B483000A3323F007030028AA
:1024300000AFADEB030D30DD6B4600260439B20072
:1024400002F1804292F880C292F8815292F8824260
:1024500092F883225FFA8CFCEDB2E4B2D2B201367C
:1024600083F800C05D709C70DA70BCF1000F03D07F
:102470000CF1FF3C83F800C01E2D9CBF01355D7040
:102480000CB1013C9C700D2A9CBF0132DA7053F8EC
:10249000042BB04241F8042FD1D1BD46F0BC7047A7
:1024A000F0B58BB006460D461446FFF79BF928B1F0
:1024B00015F57A6FBCBF012384F8303094F83230C0
:1024C00083B9002E10DDA36AAA199A4210DB0023FB
:1024D0001A4684F8313094F8243093429CBF01238B
:1024E00084F830300BB0F0BDF1D1E36AAB42EEDDE1
:1024F0002F2294F83130124F013384F831301149D2
:102500003B460092642000220DF086FC4FF0350C13
:102510000020012104220C4B049794F83170CDE97E
:102520000110009203930322CDF814C007AB64207E
:10253000CDE9085607970DF027FC94F83120CAE73B
:10254000C8870100DC8701000488010070B19A424D
:1025500015DC0F4A1368C72B01DC013313600D4BE8
:10256000187808B181F0010019707047084B1A689B
:10257000C72AF4DD1860074B01201970704700224C
:10258000034B1A60034B18780028EDD0EAE700BF30
:1025900074150020801500202DE9F04FBE48ADF2E3
:1025A0003C4D1093DDF878440378CDE90E12119379
:1025B000002C00F0D583B4AB1D460DF1B00B3C22CE
:1025C000002158460D9315F078FF78220021284607
:1025D00015F073FF20462946FFF724FF0123DDF89D
:1025E0007844129320220F23DDF8701496AE0591E3
:1025F000DDF87414CDE9023204910D992046009162
:1026000078AA5AA901965B4611F008FDDDF8781406
:10261000002940F3F4845B4600200BEB410133F9C1
:10262000022B02B101308B42F9D11390012340F209
:10263000E71200240093994B05920493984B2022B3
:1026400003930F21DDF874346C20CDE901440DF0C3
:102650009BFB20220F23DDF87014CDE90232059197
:10266000DDF87414DDF8780404910D990196009159
:102670005B4678AA5AA913F029FBDDF87804A0423A
:1026800008DD5B460BEB400133F9022B02B101344C
:102690008B42F9D1149420250F24DDF870340D9F5E
:1026A0000593DDF8743478AA04935AA95B46019621
:1026B0000097CDE9024513F049FCDDF870345AA9C2
:1026C0000593DDF87434DDF878040493CDE9024510
:1026D000CDE900765B4678AA13F090FADDF878141D
:1026E000002940F390845B4600200BEB410133F955
:1026F000022B02B101308B42F9D11590002440F237
:102700001B220123654905920491654900930391B9
:10271000DDF8743420220F216C20D2AFCDE90144C2
:102720000DF032FB0DF5707821467822384615F011
:10273000C4FE21467822404615F0BFFE20220F231A
:102740005849DDF8780409684978CDE903320791E2
:10275000DDF870145B460691DDF87414CDF8048042
:1027600005910D990097029178AA5AA914F088FD55
:10277000DDF87834A34240F34A843BAB9A46B9462D
:1027800045460C9355F8041B59F8040B15F07CFCD6
:10279000DDF878340134A3422AF8020BF2DC0F2171
:1027A0002024DDF87004DDF8A4240C9DB2F9242067
:1027B0000690DDF87404CDE9031405900D98079296
:1027C000019078AA18465AA95B460296009513F024
:1027D00049FD5B4678AA5AA9DDF8780411F018FF84
:1027E000DDF8781478AB5AAA0020CDF800B011F0CB
:1027F00067FD0120DDF87814CDF800B043463A4675
:1028000011F05EFDDDF8780400280CDD2A46662410
:1028100005EB4001B2F9003004FB03F39B1222F8F0
:10282000023B8A42F6D10D9B78AA02930C9B5AA9CF
:1028300000931AAB01935B4614F002FC14F018F9F4
:10284000002305468DF85F30FEF7CCFF04460028D4
:1028500047D1AB79144A154D1199022918BF154675
:10286000002B3BD05A460C99DDF8780412F0ACFAF4
:102870000622502164260A2351945294539454946E
:102880004AAC22600A4A2163626005320949A260AB
:10289000094AE160226111E0951F0020C88701000C
:1028A000F4A50100840F0020E8A801008C9A010023
:1028B000050082000B0096000D00C300B549B64A22
:1028C0008DF85F00E662C4E90512C4E90D33002803
:1028D00000F06983204614F003FE03E0284614F05C
:1028E000FFFD4AAC0026012240F28921AB48AC4BE7
:1028F0000591049303900DF15F03CDE90166009209
:1029000011466A200DF040FADDF878342660B342B3
:102910004BDDDFF89CA2DFF89C92DFF884824FF455
:102920002372434600929F49002270200DF074FAF2
:10293000012540F28D22042399499B480491CDE959
:102940000260059229462A4600937020234601958D
:102950000DF01AFA40F28E20022723689049059064
:102960000C98CDE903A100EB43032A4629467020C9
:102970000195029600970DF007FA40F28F20236828
:1029800087492A46CDE9039105900BEB4303CDE936
:1029900000750296294670200DF0F6F92368DDF8DF
:1029A00078242B4493422360B9DB012240F2912129
:1029B000002504207D4B7A4E0090CDE904610393FD
:1029C0006D20CDE9012511460DF58F630DF0DCF981
:1029D000DDF87804A84239DD0C9F5E46DFF8C0912F
:1029E000DFF8D481DFF8D4A103E0DDF87804A84251
:1029F0002CDD4FF4267337F9020BB6F900C0002224
:102A000000934146C4E900504B464120C4F808C039
:102A10000DF002FA36F9023B0135002BE5D040F209
:102A20009A20002201214FF0040C5D4B0590CDE966
:102A300003A3CDE901124120CDF800C023460322B3
:102A40000DF0A2F9DDF87804A842D2DCDDF8C0343C
:102A5000109E0A93DDF8643478AA0993DDF86C348B
:102A600005960893DDF868345AA90793DDF86034B9
:102A700006930F9B04930E9B03930D9B02931AAB3B
:102A800001930C9B00935B4615F0ACF9DDF87824BC
:102A9000002A2FDD0025DDF86034B71EA3F10208FF
:102AA000DDF8643440F2B22BAA46DFF814915E1EC2
:102AB00001E0AA421EDD38F9023F37F9021F6360C8
:102AC00016F8013F2560A1600135002BF1D00121EE
:102AD0000423334A0093CDE90392CDF814B00322C6
:102AE000CDE9011A234641200DF04EF9DDF8782496
:102AF000AA42E0DC0F9F0E9DDDF86424394628468B
:102B000015F00CFADDF86424834639462846FFF7B1
:102B10001BFC119B022B40F0348100260E9B22AD42
:102B2000A3F102080F9B9F1EDDF8643403F1FF3907
:102B300038F9020F37F902CF19F8011F2B4600941C
:102B400000222860C4F800C0304612F0A1F8013617
:102B50002A6823680A2EA8F800203B80E8D1BBF140
:102B6000000F40F3DF80002628220021284615F0C0
:102B7000A4FCDDF878242660B24262DDCDF834B0E2
:102B800040F23A3A3346DDF864B4DDF86C940C95C3
:102B90001DE000BF1000FA001100FA0014880100C7
:102BA000C88701002088010038880100548801008E
:102BB0003C8801004888010060880100708801009D
:102BC00080880100236801339342236036DA1BF8C2
:102BD0000330002BF6D0012700254FF00408C74B27
:102BE000C74A0493CDE9025239463A4623466D203E
:102BF000CDF814A00197CDF800800DF0C5F840F293
:102C00003B302368CDE90155BC4D42460495BD4D8E
:102C10003946059009EB83036D20009703950DF06D
:102C2000B3F82368DDF8782459F823100C980133A1
:102C3000934240F8261023603E44C8DBDDE90C5B7C
:102C4000F6B240F2423200274FF00108AB499DF83E
:102C50005000CDE90412AC4B9DF84C209DF854C0B7
:102C6000CDE90177414603938DF8642019AB042226
:102C70008DF86500CDF800806D208DF866C08DF868
:102C800067B00DF081F840F24330A04A9B49CDE98E
:102C900001770491DDF8A4344146059003926D203C
:102CA0009A22CDF800800DF06FF840F245310222F3
:102CB000974B9248CDE90187CDE904010092039337
:102CC0002022DDF870340F216D200DF05DF840F208
:102CD00046328A488F4BCDE90177049003930592E1
:102CE000DDF8743420220F216D20CDF800800DF026
:102CF0004BF839463E220DF5957015F0DEFB822724
:102D000042F20F0E4FF0200CDDF870343246009383
:102D100021462B460320A4F800E084F802C0677126
:102D200014F022F8DDE90F520E9CDDF864342946D8
:102D300000932046DDF8603411F084FBDDF8642454
:102D40002946204614F0F6F8DDF864342A46214678
:102D50000A2011F0EFFA12980DF23C4DBDE8F08F09
:102D6000B4AB1D460DF1B00B3C22214658460D93E5
:102D700015F0A3FB28467822214615F09EFB1294FD
:102D800030E4FEF72FFD00287FF4C7AE0646AB1EE9
:102D90000D93DDF86494BB1EDFF88481DFF884A115
:102DA0000C9322AD0D9A0C9932F9023FCDF8449064
:102DB0000D9231F9022F18930C9199F800102B60A5
:102DC00019922260002900F0BE806FF4E17041F694
:102DD0009C0EA3F1E10703444F48774510F806C065
:102DE00041F2D86040F2A080834200F2148143F2A5
:102DF000D450A2F5E6739BB283428CBF002301231B
:102E0000BCF1000F00F0F780002B00F09C804FF029
:102E10000000414A58F826309055B700002B00F0CA
:102E20009B805AF80730092B00F39E8023462A46E0
:102E3000304612F051F8002800F0C38019AB99F821
:102E4000001000220093304618AB11F021FF5AF811
:102E5000071022681898C1F10A0302FB03FE00FB69
:102E600001FC199A286802FB01E200FB03C32B480E
:102E700080FB02EC80FB03E0DB17C3EBA0030D98A3
:102E800019F801EBD21703800C9BC2EBAC021A803D
:102E9000BEF1000F7AD0BBF1020F40F38880092900
:102EA00002DC01314AF80710BBF1010F63DD012399
:102EB00048F80730002E74D002260E9B03EB06085C
:102EC0000F9B9F19DDF8643403F1010938F9020FF3
:102ED00037F902CF19F8011F2B4600940022286011
:102EE000C4F800C0304611F0D3FE01362A682368CA
:102EF0000A2EA8F800203B80E8D130E6C887010000
:102F0000988801009C880100B0880100B488010005
:102F100004970100F4A5010070150020676666663D
:102F20007815002084150020E42A7FF75DAF8342E6
:102F300050D9BCF1000F06D143F687039A4202DD57
:102F400001233848835558F82630B700002B7FF40A
:102F500068AF00293FF465AF324B9B5D002B3FF417
:102F600060AF0A234AF8073023462A46002130463C
:102F700011F0B2FF62E72B4B9B5D3BB95AF807108B
:102F80000029C4BF01F1FF314AF8071048F807E0F3
:102F9000BBF1000F8ED14AF807B048F807B0002EF9
:102FA0008AD10126FEE6284614F09AFA9AE41D4BCF
:102FB0009B5D002B7FF473AFBBF1020F3FF477AF43
:102FC000DEE799F80010024600942B46304611F0D7
:102FD0005FFE33E743F2D450A2F5E6739BB283421F
:102FE0008CBF00230123BCF1000F7FF40DAF43F62B
:102FF00087008242A7DD01220A48825504E70023A8
:103000001393FFF713BB00231593FFF777BB3BAA7E
:103010000C92FFF7C4BBBCF1000F94D10123014A0D
:10302000935590E7701500202DE9F04FC7B2C0F31B
:10303000072883B0474501900C992BDC9DF806A02A
:1030400052000AF100499DF807B009F1FF390AFB67
:10305000023301EB490901EB4B0C0D9908F1010812
:1030600001EB470EDA4518D849461C460C4D34F999
:10307000170031F9026F8542B8BF05468642B8BFD6
:1030800008808C451444F2D12DB2013747452EF803
:10309000025BE7D103B0BDE8F08F014DF5E700BF5B
:1030A0000080FFFF2DE9F04F05468FB04FEA410A3F
:1030B00008AF18467A608846524600216C00BB6013
:1030C000D7F8449015F0F9F92246386C002115F034
:1030D000F4F9002D64DD0AF108033E6C23F0070BC0
:1030E0004FEAA8033B617B683119F9609C1EC7F861
:1030F00014D0ADEB0B0D08ABA51C18462946524663
:1031000015F0D0F9396902464046FEF791FDB8F155
:10311000000F014650DD00202246034632F902CF5F
:103120008C4508BF184601339845F7D10522ADEB11
:103130000B0D152340F23E6C4FF0290E07926FF4F1
:103140002472009508ADCDE901530692CDE903E361
:10315000A1F11E02CDF814C03C314346FEF750FFEA
:10316000BA68023D0AEB040134F9023F35F9020F57
:103170001B1AA3EB0903002B238006DD10889BB2EA
:10318000184410803088034433808C4202F10202DC
:10319000EAD1FB6802369E42D7F814D00C46A6D17D
:1031A00000237A68C8EBC8084FEA48081C3722F8A1
:1031B0000830BD46BDE8F08F6FF424724FF0050E65
:1031C000152340F23E6C2920ADEB0B0DCDE9062E08
:1031D00008AA0390019204930293A1F11E020095A4
:1031E0003C31CDF814C043460020FEF709FF04EB44
:1031F0000A01CEE72DE9F04F87B08A0000AF3A61AF
:10320000083222F00702ADEB020DFB606B464D0069
:1032100000297B613D6040F3C980AC1E7C606C4638
:103220007A6CFE6C023A02EB05087D68A6F1020B8F
:10323000023B65199E46DC464FF4004A47F6FF798B
:103240000026144624F8026F444525F802AF2CF8F6
:10325000026F2EF8029FF5D100283DDD4FF0000AE5
:10326000FA683B6CA2F1040B3A69043B03EB0209D8
:10327000BB607A687B691344FB6000291DDDD7E9D8
:10328000025CDE46FB6C9C1E7B699E1E55F8048F1B
:103290005EF8043F3CF9022FC3EBA8139A42B8BF73
:1032A000ACF8003036F9022F9A4234F8022FC8BF2A
:1032B000338013444D452380E8D10AF1010A3B696C
:1032C00050459B44D9D100296CDDFB6C7A6CA3F18D
:1032D000020B7B69023A023B9E46BC6C7D68A61ECF
:1032E0003C6806EB04087C6904EB050C3CF8024FD3
:1032F0003EF8025F641B26F8024F3BF9024FB045CF
:1033000094FBF0F4ABF80040F0D1144678697D6886
:10331000461933F9020F34F9025F0028B8BF404262
:10332000854200DA20809E42F3D17C687B69234489
:1033300018463B68144613441E4630F9023F34F9E0
:10334000025F002BB8BF5B429D42B8BF2380A642FC
:10335000F3D16FF000443B6DA446581E0144034670
:1033600004E0AC42A8BF2C4699420AD013F8016F82
:1033700032F9025FF607F4D4AC45A8BFAC469942D7
:10338000F4D17A6C10F8015F118815F0010FA1EBF0
:1033900004050ABFA1EB0C0115801180984202F1CF
:1033A0000202EFD11C37BD46BDE8F08F0028F9DDE1
:1033B0003B68023B7B6051E72DE9F04F9FB08A00EC
:1033C00008AF7A61083222F00702ADEB020DB86156
:1033D0004E0008A800297963B860FE6119DD4FF43A
:1033E000004E47F6FF7C0025B11ED7F8842001442B
:1033F000D7F88C00023A96190DF11E04023822F813
:10340000025FB24221F802EF20F8025F24F802CFF7
:10341000F5D1B969786B4A0000FB02F2083222F05C
:103420000702ADEB020D08AA00297A6040F3E380A1
:103430007A6400223A6300EBD07222F00102043B6E
:103440000A32D7F88010BB6322F007033B617B6927
:103450000439CB18F9603B653B69C7F82CD0ADEB5C
:10346000030D08AAADEB030D08ABBB647B6BFA64DC
:10347000002B40F33981D7F890200023013A1446FD
:1034800047F6FF797A629046D7F88C209A46951EC7
:103490007A6CC7E90F33CB46FE68D7F838E0A2F163
:1034A000020C3C620BE0FC6C4A4524F8130002DA83
:1034B00001468146FB633A6D0133964221D056F8AE
:1034C000040F5EF8042F35F8021FC2EBA01211445E
:1034D000298018F8014F10B2E4072CF8020F494672
:1034E000C7F854B0DFD4BC6C5A4524F81A0003DA8C
:1034F00083467865C7F840A03A6D0AF1010A964202
:10350000DDD1C7F828A015254FF0000B05266FF474
:10351000247840F23E694FF0290AFA6C3C6A009226
:10352000F86B6431CDE9066B0395CDE9015A4FF094
:103530000042CDE90498FEF759FECDE902A5CDE998
:10354000066BCDE904980195BE6C4FF000420096E1
:10355000796DBB6A6431386CFEF748FE796B7B6A23
:10356000FD6C0B44594618467B6C14F8012F02334E
:10357000D2074BBF35F81B2036F811200BF1010B99
:103580000131844223F8022CEFD17A6CF9693B6B4C
:103590000A447A647969BA6B01330A44BA63BA6936
:1035A0003B639A42D7F82CD07FF456AFD7E90C8909
:1035B0007A68FB69A2F1020CBA6800269E46924620
:1035C0009D1E1544B9F1000F11DD29466046AAF190
:1035D000020230F9023F31F9024F9C42B8BF0B8022
:1035E00032F9024F9C42C8BF1380AA42F1D1013682
:1035F0004645F444E6D17B6B002B71DDBB68D7F800
:1036000088109C1E2646FA69881ED7F88C10A2F1F5
:10361000020CD7F81880023903EB0C0500EB020E00
:1036200035F8023F36F8022F9B1A20F8023F31F995
:10363000023F704593FBF8F30B80F1D1D7F884304B
:10364000991E0A46BB6803EB0C0534F9023F32F9B8
:10365000020F002BB8BF5B42984200DA1380A542EC
:10366000F3D1BB68084663449C46FB690B441A4689
:103670003CF9023F30F9024F002BB8BF5B429C423D
:10368000B8BF03809042F3D16FF00044D7F8903078
:103690002646581E7B6B03449C46034604E0944236
:1036A000A8BF14469C450AD013F8015F31F9022FD8
:1036B000ED07F4D49642A8BF16469C45F4D1D7F83E
:1036C000842010F8015F118815F0010FA1EB0405AB
:1036D0000ABF891B15801180834202F10202F0D1DA
:1036E0005C37BD46BDE8F08F0024152505266FF434
:1036F000247840F23E694FF0290AFB6C2046009383
:1037000007942346CDE90586CDE90359CDE9015A51
:103710004FF0004248F26301FEF768FDCDE9066410
:10372000CDE90498CDE902A50195BB6C2046009334
:103730004FF00042234648F26301FEF757FD24E7AD
:1037400010B4041E4FF000000ADD023901EB4404FE
:1037500031F9023F9342C4BF9B1AC018A142F7D16E
:1037600010BC7047002824DDF0B400258E1EAC4646
:103770004FF0FF3700E01D4636F9024F6B1C9442B4
:1037800003DD6445C4BFA4462F469842F3D17B1C99
:1037900011D07B0031F917001FB1CA1832F9022C81
:1037A0001044AF4203DA1944B1F902301844F0BCB6
:1037B0007047002070470020F0BC704770B40024B0
:1037C000061E1C6020460EDD023901EB460631F96B
:1037D000024F944202DD1D6801351D60A042B8BF52
:1037E0002046B142F3D170BC704700BF6E207047D5
:1037F0002DE9F04F064689B000AFB86088461546FF
:10380000B86C72000021BC6D99463B6114F055FE06
:10381000002206EBD67323F001030A3323F00703DB
:10382000ADEB030DC7F818D09642ADEB030DC7F80A
:1038300014D022606260A260E260226140F3C58021
:103840003046FE6C9346721E164647F6FF7E7A603F
:1038500092462A1F02EB8000F860B86CCC46714695
:10386000A8F10408A0F102093E60C7F81CB0BC65CD
:103870000FE07345A8BF7346BC690CF1010C24F836
:103880001B00A8BF18468646F8680BF1010B904252
:1038900033D0386952F8043F20B19CF8000000FB97
:1038A0000333DB1158F8040F3E6DC3EBA01347F64A
:1038B000FF708342A8BF034646480D468342B8BF07
:1038C000034618B229F8020F1AF8014F3457002C9A
:1038D000CFD18B42A8BF0B46FD697C690CF1010C6E
:1038E00024F81500A8BF18460146F8691D460130A6
:1038F000F861F86873469042CBD1D7E916429342FB
:10390000A8BF134695421BB2A8BF15465242934228
:10391000B8BF13462DB29542FB612B46B8BF134684
:103920004FF0000C3B61D7E901310B449A467B6DA7
:103930003E68BA6CE146D3E9008E6FF000454FF067
:1039400000402AE0BB69F96933F8193009F101092F
:103950005B1A1BB21380434509DD238921680133BB
:103960002381B2F90030A3EB080B594421609E4536
:1039700009DD6389616801336381B2F90030A3EB2B
:103980000E0B594461609842B8BF18469D42A8BFCB
:103990001D46B24502F102020FD016F8013F396D03
:1039A000CB56002BCED17B69396933F81C300CF132
:1039B000010C5B1A1BB21380CDE72DB202B2243783
:1039C000A281E581BD46BDE8F08F4FF0FF354FF095
:1039D0000040F4E70080FFFF2DE9F04786B0824603
:1039E000DDE9129816461C460D46149F0BF0B8FEF2
:1039F0001423159A0397CDE90423D0F801300F98CA
:103A0000153332462946CDE9010300940E9B5046FA
:103A1000FFF7EEFE00254FF0360C01210227184873
:103A2000184E2346CDE9030652466920CDF814C04E
:103A3000CDE9011500970CF0A7F9AA4528460FDD3E
:103A4000A31E03EB4A0A33F9021FA1EB0902002A65
:103A5000C8BFAD18B1EB080148BF40185345F2D1BB
:103A6000109BAB4207DB119B8342D4BF0020012097
:103A700006B0BDE8F087012006B0BDE8F08700BFC2
:103A800004970100CC880100002820DDF0B48E1ED0
:103A900006EB4006B14218D0571C38460B46B1F928
:103AA000004033F9025FAC4207DD0D801C8092F9C3
:103AB000004090F9005015700470B34200F101000D
:103AC000EDD10231B1423A46E6D1F0BC70477047C1
:103AD0002DE9F04F8046450005F1080485B000EB64
:103AE000D07A24F0070407302AF0010A00AF20F052
:103AF0000700ADEB040D08F1090424F00704EB46C0
:103B0000ADEB000D0AF10A0020F007006E46ADEBA8
:103B1000040D6C46ADEB000DE946C7E902210AF140
:103B2000020A08F102021F2120467B6014F0C5FC46
:103B300052464846002114F0C0FCB8F1000F7B68E3
:103B400007DD324606EB0800911B02F8011B82429A
:103B5000FAD14FF0FF3A2A46F96858467B6014F0D4
:103B6000A1FC594632464046FFF78EFF023D08F160
:103B7000FF3E7B6806EB0E01AB44013EB14218D01C
:103B80003BF9025911F901299D4202F1010C10DBA8
:103B9000A05C22441F28927860D01E2860D81E2A7C
:103BA00096BF4FF0FF3204F80C0004F80C20B1422D
:103BB000E6D1B8F1020F04F1010113DD0B46FF203D
:103BC000A64402E0013373450CD05A781F2AF9D17C
:103BD0001A781E2AF6D89A7801331E2A98BF1870D0
:103BE0007345F2D1B8F1000F2EDDFB6804EB080637
:103BF000F96004E00134A64203F1020323D06278A5
:103C0000FF2AF7D1257894F802C039F8150039F861
:103C10001CE08346704528BFF346B3F90020B96B1A
:103C20000A449345E6DA704538BF7046013465456D
:103C30008CBF29F81C0029F81500A6420AF1FF3AAA
:103C400003F10203DBD1F9684246B86814F02AFC9C
:103C50000AF101001437BD46BDE8F08F1F2A06D0D7
:103C60001E2A88BF6FF0690204F80C2086E70AF16B
:103C7000010A04F80CA029F81A507FE710B4DDE916
:103C80000134019410BCFFF723BF00BF38B50024F6
:103C90000A4A0B480B4B0C4D2146146004704FF43C
:103CA00020720A482C601C6014F007FC2146BDE815
:103CB00038404FF49672064814F0FFBB9815002068
:103CC000941500208C150020901500209C150020D4
:103CD0001C1800202DE9F04FAFB0021E06AFB962EC
:103CE0007B603A6340F33884D14BD2491868FB605B
:103CF000D7F8C8305200023B01EB80113A6102391B
:103D00009C1833F9022F9C4221F8022FF9D1BB6A8B
:103D1000002B40F33A840023C74AC0EB0010D7F8C9
:103D2000CC1002EB4002BC6A023A023931F9020FB0
:103D300001339C4222F8020FF8DCC04B01241846E4
:103D400000254FF469720226BD4B0592CDE901456D
:103D500000967863CDE903302146D7F8C830202299
:103D600049200CF011F840F2A532796BB54BCDE942
:103D700001450491059200960393D7F8CC30214673
:103D80000F2249200CF000F83B6BAB4240F3F0836C
:103D90004FF0000847F6FF75D7F8E8304046C646B2
:103DA0004646C7F82C80C7F82480D3F800C0A14C41
:103DB000DFF89492D7F8C8A0D7F8F0802246002305
:103DC00004F5207B32F9401B93450B44FAD189FB63
:103DD0000312DB17C3EBA2031BB2002BC8BF9E4428
:103DE0009E42B8BF1E469D42A8BF1D469C452AF86C
:103DF00010300DDAB8F80820D8F800300132A8F8F1
:103E000008203AF91020A2EB0C021344C8F8003045
:103E1000022840F3E3833B6B0130834204F1020448
:103E2000CCD1D7F82480D7F82CB04346B8F1000F96
:103E300040F0AE8432B27A612AB2BA619EFBF0F2EF
:103E4000BA600022C7E90F32BB6A7A64934240F33A
:103E5000968396466FF0010447F6FF769046C7E9D1
:103E6000072292469446D7F8EC202344C7F82CE06A
:103E7000D7F8CC50D2F800906F48D7F8F4E07B62C6
:103E80000246002300F5967B32F91E1B93450B4436
:103E9000FAD16D4A82FB0312DB17C3EBA2031BB2FC
:103EA000002BC8BF9A449C45B8BF9C469E42A8BF01
:103EB0001E4699452B800DDABEF80830DEF800204A
:103EC0000133AEF80830B5F90030A3EB09010A441C
:103ED000CEF800200B2C23EAE37340F28983984448
:103EE0000123FB627B6A0134A34205F1020500F164
:103EF0000200C5D1FB69D7F82CE0002B40F05484B8
:103F0000FB693B62BEF1000F40F04A84BB6A0FFAC6
:103F10008CFC9AFBF3FB36B23D69BA8A2B46083318
:103F200023F00703ADEB030DD7F8F010D7F8F0300E
:103F30003C8B9A81CC816946BA6A0DF1180AC2F3AA
:103F40009C03A1EBC3039D460020D7F8F430C7E9DA
:103F50001200A3F80CC0DE8106ABFB61131F7B626D
:103F60003B6BC7E914008342C7E9160033DD40F21A
:103F700044588446814606460446D7F8C830C7F8F8
:103F800018A0991E0D44AE46AAF10205D7F808A064
:103F9000F86231F9022FA2EB0A0323EAE3731BB2A2
:103FA000973AB34292B225F8023F03DD1E464FF026
:103FB0000109FC6242459CBF012084448E4504F106
:103FC0000104E6D1D7F818A0B9F1000F40F0F3834F
:103FD000002840F0ED83BB6A042B1EDD0025022281
:103FE0002E462C46D7F8CC10A3F1020CFB6988189A
:103FF000991E30F9023FA3EB0B0323EAE3731BB2D4
:10400000A34221F8023F02DD1C461546012601327B
:104010006245EED1002E40F0C0833B6B002B1EDDCD
:10402000BAF90030002B1ADD52460023386B11E03C
:10403000981500209C1500201C180020CC88010039
:10404000DC880100E88801006766666632F9021FB5
:10405000002903DD01338342F8D13B6BBB643B6A2B
:10406000012419467B6A0025042691FBF3FC40F2EB
:104070002C42796BAA4BCDE904120393CDE901459B
:1040800022462146009607F13C03C7F860C049204C
:104090000BF07AFE40F22D40CDE901450096796B98
:1040A000A04B04912246214605900393492007F135
:1040B00060030BF069FE4FF0020840F22F4CCDE98F
:1040C0000145796B984804913A6B53462146CDF8E7
:1040D00014C00390CDF8008049200BF055FE4FF43A
:1040E000866CCDE90145CDF80080796B8F4804914D
:1040F000FB697A6A2146CDF814C0039049200BF081
:1041000043FE40F23240CDE901450096796B884B81
:1041100004912246214605900393492007F140036C
:104120000BF032FE40F23340CDE901450096796B49
:10413000804B04912246214605900393492007F1C4
:1041400044030BF021FE40F23540CDE901450096D5
:10415000796B794B049122462146059003934920BF
:1041600007F148030BF010FE40F23640CDE901455F
:104170000096796B714B049122462146059003937A
:10418000492007F14C030BF0FFFD4FF48760CDE9A8
:1041900001450096796B6A4B0491224621460590B1
:1041A0000393492007F150030BF0EEFD40F2394034
:1041B000CDE901450096796B624B04912246214678
:1041C00005900393492007F158030BF0DDFD40F201
:1041D0003B40CDE901450096796B5B4B049122464B
:1041E000214605900393492007F154030BF0CCFDC1
:1041F00040F23C40CDE901450096796B534B049168
:104200002246214605900393492007F15C030BF0F9
:10421000BBFD4FF0030E4E4A4E4BDFF854C107F181
:10422000740A5146B7F94000C7E91F2387F83A508E
:10423000C7E92155C7E92355C7E92555C7F89C505B
:10424000C7E91DEC13F076FFD7E91032A342B8BFDF
:104250002346920192FBF3F323EAE373984287F833
:104260003B50C7E9190304DABB6D032BC8BF87F8BD
:104270003B40012400254FF0040840F263427E6B6E
:10428000354BCDE9046221462246CDF800800393E8
:10429000492007F16803CDE901450BF075FD40F2B7
:1042A00064402E4BCDF800802246214605900393B2
:1042B000492007F16403CDE9014504960BF064FD44
:1042C00040F26540264BDFF8AC8022460590039310
:1042D000CDE9015507F13B0300940496214649209E
:1042E0000BF052FD98F80020FB6B002A44D16E2B96
:1042F00003DD3B6E1E2B00F3058140F28542194B16
:1043000000921949002264200BF086FD97F83A309C
:10431000002B40F00D810022144B1A6048E000BFD2
:10432000F48801000089010010890100248901003E
:104330003889010048890100588901006889010015
:104340007C89010094890100B0890100C8890100BD
:10435000E8034000D0074000E4890100F48901002F
:10436000048A0100CC880100A08A01009015002079
:10437000F4013200941500205A2B03DD3B6E1E2BF6
:1043800000F33C8140F29D42B24B0092B2490022C0
:1043900064200BF041FD002387F83A30AF4A1368E0
:1043A0000133282B136003DD002388F800301360ED
:1043B0000124002540F2AD424FF004097E6BA84B6A
:1043C000CDE90462CDE90145224621460393492007
:1043D000A44BCDF800900BF0D7FC40F2AE40A24BBE
:1043E000CDE90145224621460496059003934920D4
:1043F0009A4BCDF800900BF0C7FC4FF496609B4BA6
:1044000022462146CDE90155009404960590039378
:10441000492007F13A030BF0B7FC40F2B140944B4E
:1044200022462146CDE90155009404960590039358
:104430004920904B0BF0A8FCFE68D7F8C8103268F2
:10444000B1F9003022440A2A18BF15464888FA6B91
:104450008988002BA7F8722004F1CC343560A7F8C6
:104460006C30A7F86E00A7F8701007F16C0212DD2F
:1044700099B2481E092806D9A1F10B00092824D8B1
:104480005B1005331BB222F8023B924508D0B2F90B
:104490000030002BECDC002322F8023B9245F6D1E1
:1044A000D7F8F85098F80000B7F96C40B7F96E10DB
:1044B000B7F97020B7F97230A43728612C606960B1
:1044C000AA60EB60BD46BDE8F08FA1F11500092898
:1044D00008D803EB43035B00A4FB0313DB0803339F
:1044E0001BB2D0E7A1F11F0009282ED9A1F12900A4
:1044F000092800F29580DB00A4FB0313DB08043BD2
:104500001BB2C0E740F26B435B4900936420514B00
:104510000BF082FCFB6C87F83A40132B03DC7B68C2
:10452000002B00F0B38097F83B30002B40F0D18097
:104530004C4A136801330A2B13607FF739AF01210E
:10454000002388F80010136032E7C3EBC303A4FB19
:10455000031343F3CF0396E7BB6A002B40F3D280EB
:104560003A6B464B5200FB603A611868FFF7D3BBC9
:1045700047F6FF722B46BD60C7E9055261E49346DA
:1045800047F6FF763A629446C6E4324B0124184659
:10459000002502264FF46972394B0592CDE9014599
:1045A00000967863CDE903302146D7F8C830202241
:1045B00049200BF0E9FB40F2A532796B314BCDE994
:1045C000014504910592009603932146D7F8CC301B
:1045D0000F2249200BF0D8FBFFF7DABB01223AF992
:1045E00010307A62FA6A002BA8BFD218FA6212E47D
:1045F0000122FA613A6A1A443A6273E440F295423F
:10460000144B009220492A4664200BF005FC97F8D1
:104610003B2087F83A40002A68D1104B1A60C7E661
:10462000A1F1330009280CD93D3927293FF62BAFDA
:10463000C3EBC3035B00A4FB0313DB08263B1BB2E5
:1046400021E703EBC303A4FB0313DB08093B1BB205
:1046500019E700BFCC880100A08A01008C1500205A
:10466000F88A0100901500200C8B0100208B0100BE
:10467000348B010094150020108A01009815002049
:10468000DC880100E8880100D48A0100BB6D062B9C
:104690007FF74EAF97F83B30002B6CD17B6CB3F5B6
:1046A0007A7F7FF745AFBB6C052B3FF741AF3B6D82
:1046B000B3F5FA7FBFF63CAF40F27A42404B00922E
:1046C0004049002264200BF0A7FB002387F83A3012
:1046D00021E640F281423A4B00923B49002264209D
:1046E0000BF09AFB002387F83A3014E640F2994227
:1046F000334B009235492A4664200BF08DFB87F836
:104700003A504BE62E4B00240125184602264FF462
:1047100069722F4B05920096CDE901547863CDE97B
:1047200003302946D7F8C830202249200BF02CFB53
:1047300040F2A532796B009647F6FF76254BCDE91E
:104740000154049105920393D7F8CC3029460F22E7
:1047500049200BF019FB204BBC60FB603B6BBE613A
:10476000AB40C7E90F447C647C61A3463C62A4462D
:104770003B61FFF7D1BB40F2734200927C68104B63
:104780002246124964200BF047FB87F83A40C2E505
:1047900003239BFBF3F3FFF74DBB7C65FD653CE416
:1047A000C7F84480FFF7B2BB3B6A3B64FFF7AABB84
:1047B000C7F84CC00FE4FB6A3E65BB6508E400BF68
:1047C000CC880100548A0100748A0100348A0100F7
:1047D000DC880100E8880100981500200048704737
:1047E00000000020014B036020207047548B010023
:1047F000014B03600F207047748B0100014B036075
:104800000F207047448B010030B44FF080430022EA
:104810000E211F2020250F2483F8082183F80A2168
:1048200083F8090183F80B111A739A735873D973BB
:104830001D725C72DA7793F8211041F0010183F860
:10484000211093F8211062F3410183F8211030BC4C
:10485000704700BF10B44FF0804485B00DF1100CCC
:104860000CE90F00BDF800302382BDF802306382EE
:10487000BDF90430A382BDF90630E382BDF80830EB
:104880002383BDF80A306383BDF80C30A38305B0E1
:1048900010BC70474FF08043988370474FF08043BF
:1048A000988B70474FF0804383F82000704700BF1B
:1048B0000123002110B50A4A0A4C2377917210B9DE
:1048C0004FF08042D3704FF0804301229870002156
:1048D0001A700A2000F0BEF90022024B1A7710BDB0
:1048E000481900200000105001234FF08040102193
:1048F00010B4034A034CA372436010BC11607047AC
:10490000AC0100204819002001234FF08040102105
:1049100010B4044A044C6372C0F8043110BC116036
:10492000704700BFAC01002048190020E0220021A0
:10493000014813F0C2BD00BF800100402DE9F041E5
:1049400005461F4B1F4886B06A1E13F8011B8342A1
:1049500002F8011FF9D101242B464FF0A90C0027C2
:1049600002262868184AC11782FB00E2DFF864803B
:1049700002441648C1EB222243F8242B2146CDF8ED
:1049800014C02246CDE90308CDE901470096622014
:104990000BF0FAF94FF0AA0C0D48CDF810800390F7
:1049A000CDE90147009605F1260322462146CDF8C0
:1049B00014C062200BF0E8F906B0BDE8F08100BF3A
:1049C00028000040540000408988888848B00100D1
:1049D000888B0100848B010070B5E022064600211F
:1049E0000B4813F06AFD002401234FF08042094D6B
:1049F00009492B770A208C7293702146137000F0BE
:104A000029F92C773046BDE87040FFF797BF00BF0B
:104A100080010040000010504819002010B50446E5
:104A2000FFF78CFF2E234FF0804004F14E0203F17C
:104A3000600150F82110013B1F2B22F8021DF6D116
:104A40004FF0804004F1960203F1600150F821100C
:104A5000013B22F8021D591CF6D110BD4FF08042D7
:104A600070B5037909B201FB03F1948B8B11A3425A
:104A7000B8BF234601250024022106889BB243804B
:104A8000A2F80C61A2F80E31074E084B35770920C9
:104A90005C7282F8035182F802112146A2F800519B
:104AA00000F0D8F8347770BD00001050481900208D
:104AB0004FF0804393F81401704700BF4FF08043DC
:104AC00093F81701704700BF0023094A82F832307B
:104AD0005064916472B6012382F8403000BFB2F88E
:104AE00052309BB2002BFAD062B6B2F85000704739
:104AF000000010502DE9F0475022102020213024D2
:104B00004FF0400A4FF060094FF001084FF4807EEB
:104B10004FF4007C4FF480674FF400660825104B7B
:104B200083F8040383F8081383F8004383F80343EE
:104B300083F805A383F8092383F80A2383F80B235A
:104B400083F80F93C3F8008018601960C3F800E081
:104B5000C3F800C01F601E601D60BDE8F08700BF85
:104B600000E100E04FF40042014B1A60704700BFC3
:104B700000E100E000220121034BA3F86E20A3F81E
:104B80006A20A3F8681070470000105030B5134D2C
:104B9000A1B02B7803B3124C124B22689A421BD05F
:104BA00080226846002113F088FC002223468034CE
:104BB000186820A9043301EB8201A34241F8800C5C
:104BC00002F10102F4D1074B6A46802104480093A8
:104BD00000F080FC00232B7021B030BD8019002034
:104BE00000FC0100DEADDEAD10B5174C84B094E8DA
:104BF0000300029002A88DF80C1000F061F800F09C
:104C000069F8FFF777FF62B600F008FAA36804A816
:104C100040F80C3D00F0FCF900F044FA00F052F9C5
:104C200000F0B4FA094B1A6922F004021A61BFF3CA
:104C30004F8F0721064A82F824105A6942F0100269
:104C40005A6104B010BD00BF9086010000ED00E085
:104C50000000105008B500BF72B6084A135C3BB99B
:104C600000BF30BF62B600BF72B6135C002BF7D036
:104C70000023135401B1884762B608BD48190020CB
:104C800000200A4B0A4913F8012B10448B42C0B292
:104C9000F9D1064B1A78AA2A01D000207047DB7B95
:104CA000181AB0FA80F04009704700BF8000400039
:104CB0008F0040004FF0A04301225A74704700BF9C
:104CC0000246034B0068127918601A71704700BFE2
:104CD0005819002070B5FFF7D3FF01220021334B94
:104CE000D9705A72DA7200285CD0314AD278D2B2C6
:104CF0001A72002201242F492C4B8D789A725A7314
:104D00001D734D780E781E751D77CD78097983F85F
:104D1000215083F820105A749A741C749A7018B336
:104D2000234A51781A78C9B2D2B28A4208D08A424C
:104D3000B4BF013202F1FF32D0B28A421870F6D10C
:104D40001B4B1A491A794B78D2B2DBB29A420AD07D
:104D50009A4203F1010096BF03F1FF33C3B2DBB205
:104D60009A424B70F4D170BD1A78D2B2B02A08D0F2
:104D7000AF2AD4BF013202F1FF32D1B2B02A19708A
:104D8000F6D10A4A5378DBB2082BECD0072B03F19B
:104D900001018ABF03F1FF33CBB2DBB2082B5370A2
:104DA000F4D1E0E7E0221A72A3E700BF0000105040
:104DB000800040005819002007490B78DBB283427D
:104DC00008D09842CCBF013303F1FF33DAB28342FB
:104DD0000A70F6D1704700BF00001050014B1878E0
:104DE000704700BF00001050084A5378DBB283427E
:104DF0000AD0984203F1010196BF03F1FF33CBB211
:104E0000DBB283425370F4D1704700BF00001050F2
:104E1000014B5878704700BF0000105010B5044691
:104E2000FFF748FF4FF0A04320686168A26807C3FE
:104E300010BD00BF38B54FF0A044E37DDBB2042BBA
:104E400028D0082B19D0022B09D00123184A13703F
:104E500000BF4FF0A042137300BF537338BD154D10
:104E60001549607911F05EFC6179286811F0A2FCA7
:104E700062792B6813442B60E7E7104BD0E90512E9
:104E800059609A60236A5BBA0A4A1846136011F0A7
:104E900013FCDAE7074D0A49207911F021FC21794A
:104EA000286811F05BFC22792B6813442B60CCE757
:104EB00048190020601900202000005068250020BB
:104EC00024000050274B0022D3F8801021F001016C
:104ED000C3F88010196C41F001011964196841F0A0
:104EE00001011960D3F8801021F00201C3F880108D
:104EF000196C21F002011964196841F0020119606E
:104F0000D3F8801021F01001C3F88010196C41F023
:104F100010011964196841F010011960D3F880106C
:104F200021F02001C3F88010196C21F020011964D0
:104F3000196841F020011960D3F8801021F0400178
:104F4000C3F88010196C21F040011964196841F010
:104F500040011960C3F80821C3F80421C3F80021F7
:104F6000704700BF00000250034BD3F8C030184216
:104F70000CBF0120002070470000025038B54FF0F0
:104F800040540125642084F8245000F063FB00F0B5
:104F900015FB00234FF47A7084F8253084F8815093
:104FA00000F058FBBDE8384000F008BB10B5012305
:104FB0004FF04054642084F8253000F04BFB00F0A3
:104FC000FDFA002384F8243084F8813010BD00BF3E
:104FD00014200122002130B50A4D89B02D780A4CE9
:104FE00005900A4808AB03F8015DCDE90111CDE950
:104FF00003040092114664200AF0C6FE9DF81F00CB
:1050000009B030BDB70040009C8B0100A48B0100AB
:105010000268014B1A6070476419002038B5FFF729
:105020002FFE0F23F0B94FF040524FF00104D9B2D8
:10503000013B072B82F82B1082F8284082F82800C9
:10504000F5D1042382F82F304FF040530121002284
:1050500083F8281083F828204FF47A70BDE8384090
:1050600000F05EBB4FF04051012500240C4806E0E3
:1050700081F82B20013B81F8285081F82840027AE2
:105080000E2A8EBF0F22027AD2B29342DAB2EFDA40
:105090004FF04052024B5B7ADBB282F82F30D3E7FD
:1050A00080004000F8B5FFF7EBFD4FF040540125BC
:1050B0000026074684F825604FF47A7084F8205063
:1050C00084F8275000F02CFB642084F8255000F071
:1050D00027FB84F82450642000F022FB84F825602C
:1050E00007BB06231C4D84F82730EB7884F8263064
:1050F0002B7884F842304FF0405401230022697825
:1051000040F24C4084F8461084F8442084F845303E
:1051100084F8413084F8403000F002FBAB7884F82A
:105120004430F8BDFFF754FF0C4B9B7A88B94FF021
:105130004052DBB2084D84F82730E978074B82F8FB
:105140002610DB7A29780B440B3BDBB282F8423025
:10515000D1E7053BEBE700BF641900208000400069
:1051600020B9064A064B106018607047034905488D
:10517000034B054A08601A60704700BF6C19002095
:10518000681900207D4F0000AD4F00004FF04053E4
:10519000F0B40624012200250A26FF2083F8D64019
:1051A00093F8D7100F2764F3030183F8D710042175
:1051B00083F8D86083F8402183F8D00083F87F50CB
:1051C00093F88C004FF0050C104383F88C0093F893
:1051D0008C00072640F0020083F88C0093F89100C1
:1051E00064F30300032483F8910083F8901083F89C
:1051F0008D1083F8A02093F8A10065F3010083F8D7
:10520000A10083F8947093F88800104383F8880015
:1052100093F88900104383F8890083F8F12083F81C
:10522000874083F88E4083F8D22083F8D52083F816
:10523000ABC083F8AD5083F8AC4083F8AE1083F870
:10524000AF1093F88B1041F0700183F88B1083F846
:10525000936083F8B020F0BC704700BF00220D4877
:105260000D4B0E4910B403600B6800EB82047F33D2
:1052700023F07F0341F8043B52B154F8043C51F849
:10528000084C022A234440F8223001D110BC704758
:105290000132E9E7D02D0020000240009C010020EF
:1052A00032232DE9F04F514E8BB00093002233464C
:1052B0004F4964200AF0B0FD002504273323DFF8AE
:1052C00044814C4ACDE90463039243460322012101
:1052D0006420CDE9015500970AF056FD4FF0640BAC
:1052E0003423454C454A059303922346032201216A
:1052F00058460496CDE9015500970AF045FD012274
:105300003C23A068D8F808C03D498444ACF500743B
:10531000A4B20BFB04F4A1FB0414DFF8EC80DFF86B
:10532000ECE01146A40A58460593049607ABCDE974
:1053300001550097CDF80C80CDE908E4CDF81CC0EC
:1053400014460AF021FD3D23DFF8C490584605932A
:105350002246214608AB0496029500970194CDF8A9
:105360000C900AF011FD3E23DFF8A8A02246059319
:10537000049609ABCDE90145009758462146CDF882
:105380000CA00AF001FDDDE907239A422BD927463C
:105390004FF08C0B00240425012207AB1146CDE908
:1053A000046BCDE90248CDE9005464200AF0ECFC1E
:1053B00001228D2311460593029408AB0095CDE997
:1053C0000396019764200AF0DFFC8E2301220593E7
:1053D00002940095CDE903A60197114609AB64201C
:1053E0000AF0D2FCD6E70BB0BDE8F08FA88B010025
:1053F000C48B0100F88B01009C0100200C8C010083
:10540000ABAAAAAAD02D0020208C010000084000E1
:105410002C8C0100388C0100034B044AD3E90013A3
:1054200010681944FFF750BB9C010020D02D0020CC
:1054300041F2342310B50D4C226812889A4201D0F3
:10544000002010BDFFF7E8FFA3681B888342F7D157
:1054500023685B88012BF3D10EF080FB23685B6827
:10546000181AB0FA80F0400910BD00BFD02D0020FE
:10547000164B30B41D7BEDB272B600220724914268
:105480001C7383F831200EDD4A1E22F07F0200F1EA
:10549000800301241A4400E0803340F480109A42D3
:1054A00004601846F8D10121084B094A83F83110ED
:1054B0001D73D2F80001000405D54FF40040A3F895
:1054C0006C10C2F8800162B630BC7047000010500A
:1054D00000E100E0F0B4A0B06B461C46C3F1C0454B
:1054E00005F58025665D04F8016B20AEB442F9D164
:1054F0001B4C277BFFB272B64FF0070C002684F8D6
:105500000CC084F831600C1EB8BF0334A410002C0A
:1055100009DD114602EB8404861A8A1951F8040B3E
:10552000A1421060F9D101200D4A0E4982F83100E4
:105530001773D1F8004124040AD462B65A1913F83B
:10554000011B117020AA9342F8D120B0F0BC704723
:105550004FF40044A2F86C00C1F88041EDE700BFB1
:105560000000105000E100E0034610B40448054C70
:105570000A4650F8230054F8231010BCFFF7AABFC6
:10558000D02D00209C01002000220521034B04485F
:105590001A6058609A601960704700BF10E000E020
:1055A000FFFF0F000022044B98681A60C0F57F20AF
:1055B00000F6FF70704700BF10E000E000210523F7
:1055C000054A20F07F40013850609160136000BFB1
:1055D0001368DB03FCD5704710E000E0054A06497C
:1055E000937CD27801335B00934000FB03F091FB86
:1055F000F0F070470000105000B4C404054A937ADC
:10560000D27ADBB20AB101339840034B93FBF0F03E
:10561000704700BF0000105040420F00054A937AC7
:10562000D27ADBB22AB10122134402FA03F390FBCF
:10563000F3F0704700001050054A00EB8000937CA7
:10564000D27801335B009340000190FBF3F0704788
:1056500000001050124B00EB80001B7B0001DBB2FE
:105660005A1E062A0DD9082B12D0092B15D0A3F1EA
:105670000B02032A0ED90F2B0CBF01234FF0FF336F
:1056800000E00133064AD278934090FBF3F0704774
:105690000A23F7E7063B9B00F4E70C23F2E700BF81
:1056A00000001050034B044A5B7C03F0010352F8E6
:1056B00023301847000010500C8D0100034B044AA2
:1056C0005B7C03F0010352F82330184700001050B0
:1056D000048D010070B5012200241D21042688B02C
:1056E00008AB43F8040D0B4D0B48CDE9012405919F
:1056F000CDE903051146009664200AF045FB074BEF
:1057000007985C7100F03EF821460520FFF7A2FAE9
:1057100008B070BD148D01001C8D010048190020D7
:1057200008B5FFF7BFFFBDE80840FFF7D3BF00BFD4
:1057300008B5FFF7C3FFBDE8084000F00BB800BF95
:10574000002000F043B800BF012000F03FB800BFC8
:1057500000F030B8012830B44FF000024FF00204DE
:1057600038BF01200121054B054D1A702A719C702C
:105770009860DA605A70197030BC704700000850A9
:105780004819002001284FF000024FF0010138BFF6
:10579000012010B4054B064C1A7062719970986024
:1057A000DA605A70197010BC704700BF00000950D1
:1057B00048190020012000220249034B08711A7089
:1057C000704700BF481900200000085010B40B4A71
:1057D0000B4983B0CDE9001202AB03EB800353F811
:1057E000082C9378DBB2012B04D10021054C043046
:1057F0002354117003B010BC704700BF0000095063
:105800000000085048190020024A136C23F00103DD
:105810001364704700000250024A136C43F0010306
:105820001364704700000250024B186CC04300F034
:105830000100704700000250002822DDF0B5DCF8BE
:105840000460002496F80EE00CE0DCF800703F5D88
:1058500007FB033305FB03F35B1242F824300134EA
:10586000A0420DD051F8043B356ABEF1000FECD1D7
:1058700003FB05F39B1042F824300134A042F1D120
:10588000F0BD7047002822DDF0B5DCF8046000248C
:1058900096F80EE00CE0DCF800703F5D07FB033388
:1058A00005FB03F35B1242F824300134A0420DD013
:1058B00051F8043B356ABEF1000FECD103FB05F350
:1058C0009B1042F824300134A042F1D1F0BD704762
:1058D000002822DDF0B5DCF80460002496F80EE024
:1058E0000CE0DCF800703F5D07FB033305FB03F3BE
:1058F0005B1242F824300134A0420DD051F8043B31
:10590000356ABEF1000FECD103FB05F39B1042F8A2
:1059100024300134A042F1D1F0BD7047002822DDCF
:10592000F0B5DCF80460002496F80EE00CE0DCF83A
:1059300000703F5D07FB033305FB03F35B1242F886
:1059400024300134A0420DD051F8043B356ABEF139
:10595000000FECD103FB05F39B1042F82430013417
:10596000A042F1D1F0BD7047DCF80830F0B49C7B68
:10597000BCB9002813DDDCF80430D3F80D301B6807
:105980001E89DD8851F8043B013403FB06F393FBC9
:10599000F5F3A0424FEA831342F8043BF2D1F0BC86
:1059A00070470028FBDDDCE90043D3F80D30013CF3
:1059B0001B6820441F89DE8814F8015F51F8043BFE
:1059C000A04205FB033307FB03F393FBF6F34FEA17
:1059D000630342F8043BEFD1F0BC7047704700BF4F
:1059E00000280BDD10B4002451F8043B01349B0166
:1059F000A04242F8043BF7D110BC7047704700BF8B
:105A000000232DE9F041DCF80C5088B00793D5F85D
:105A100009200028644617680EDDDCF80820D268EB
:105A20001618013E013A12F8011F795C96420B44A8
:105A30000793F8D193FBF0F3606807934288002A3C
:105A400053D00689921B11029B1B91FBF3F3B3F514
:105A5000DC7FA8BF4FF4DC730362D5F80D504FF024
:105A6000020E2989002603FB01F31912FF29A8BFA2
:105A7000FF2101224FF0AA081E4FDFF884C0698180
:105A800000EB0E03CDF800E0CDE903C71146CDF8D9
:105A90001480CDE9016664200AF076F901254FF003
:105AA0000408AB22144B059229462A460393049717
:105AB00007AB02960195CDF8008064200AF064F9E6
:105AC0004FF0AC0C63680D4804970390CDE9015684
:105AD000CDF8008020332A462946CDF814C0642032
